:100000000C943E000C945B000C945B000C945B0021
:100010000C945B000C945B000C945B000C945B00F4
:100020000C945B000C945B000C945B000C945B00E4
:100030000C945B000C945B000C945B000C945B00D4
:100040000C945B000C945B000C945B000C945B00C4
:100050000C945B000C945B000C945B000C945B00B4
:100060000C945B000C945B000C945B000C945B00A4
:100070000C945B000C945B000C945B0011241FBE7D
:10008000CFEFD8E0DEBFCDBF11E0A0E0B1E0E0EC03
:10009000F1E002C005900D92A230B107D9F721E03E
:1000A000A2E0B1E001C01D92AA30B207E1F70E94C0
:1000B00069000C94DE000C9400004A9B08C08FE19C
:1000C0009EE40197F1F700C0000081E0089580E010
:1000D00008958FEF81B984B987B91AB8C1E0D2E029
:1000E00013E08091060190910701A0910801B09161
:1000F00009010196A11DB11D80930601909307018E
:10010000A0930801B0930901809102010E945D0053
:10011000809302018823A9F080910001823099F533
:1001200082B98FE19EE40197F1F700C00000809151
:1001300003019091040101969093040180930301BF
:1001400005C012B8809102018111E6CF2091000113
:100150009091020180910501821310C091110EC08F
:100160002091030130910401232B41F08130E1F40F
:10017000D0930001109204011092030180910001BC
:1001800080930501AECF813059F28330F9F6C2B9C0
:100190008FE097E20197F1F700C00000D2B98FE03D
:1001A00097E20197F1F7C1CF823019F41093000163
:1001B000E1CF8330F9F6C0930001DCCFF894FFCF94
:0201C00001003C
:00000001FF
