:100000000C943E000C9448000C9448000C9448005A
:100010000C9448000C9448000C9448000C94480040
:100020000C9448000C9448000C9448000C94480030
:100030000C9448000C9448000C9448000C94480020
:100040000C9448000C9448000C9448000C94480010
:100050000C9448000C9448000C9448000C94480000
:100060000C9448000C9448000C9448000C944800F0
:100070000C9448000C9448000C94480011241FBEB6
:10008000CFEFD8E0DEBFCDBF0E945C000C949B0098
:100090000C94000090E090938900809388009093E6
:1000A0008B0080938A0081EA8093800082E08093B5
:1000B00081001092820008958FEF8AB980E00E943B
:1000C0004A002FEF83ED90E3215080409040E1F70C
:1000D00000C0000080E40E944A002FEF83ED90E30F
:1000E000215080409040E1F700C0000080E80E946D
:1000F0004A002FEF83ED90E3215080409040E1F7DC
:1001000000C0000080EC0E944A002FEF83ED90E3D6
:10011000215080409040E1F700C000008FEF0E9426
:100120004A002FEF83ED90E3215080409040E1F7AB
:0A01300000C00000C3CFF894FFCF19
:00000001FF
