:100000000C943E000C9448000C9448000C9448005A
:100010000C9448000C9448000C9448000C94480040
:100020000C9448000C9448000C9448000C94480030
:100030000C9448000C9448000C9448000C94480020
:100040000C9448000C9448000C9448000C94480010
:100050000C9448000C9448000C9448000C94480000
:100060000C9448000C9448000C9448000C944800F0
:100070000C9448000C9448000C94480011241FBEB6
:10008000CFEFD8E0DEBFCDBF0E9458000C947200C5
:100090000C9400009C0190E080E08217930709F423
:1000A000089542E04A95F1F700C00196F6CF089511
:1000B0008FEF81B984B915B88EE190E00E944A00B3
:1000C00082E085B98EE190E00E944A00C2E015B856
:1000D0008EE190E00E944A00C5B98EE190E00E9456
:0800E0004A00F5CFF894FFCFB0
:00000001FF
